{
  "contractName": "RobotRequestToken",
  "abi": [
    {
      "inputs": [
        {
          "internalType": "address",
          "name": "token",
          "type": "address"
        }
      ],
      "payable": false,
      "stateMutability": "nonpayable",
      "type": "constructor",
      "signature": "constructor"
    },
    {
      "anonymous": false,
      "inputs": [
        {
          "indexed": false,
          "internalType": "address",
          "name": "user",
          "type": "address"
        },
        {
          "indexed": false,
          "internalType": "uint256",
          "name": "robotID",
          "type": "uint256"
        },
        {
          "indexed": false,
          "internalType": "uint256",
          "name": "DataType",
          "type": "uint256"
        }
      ],
      "name": "DataRequested",
      "type": "event",
      "signature": "0x5877d639a3a3aeaa9ee7f623b099e8ae5e1c7a5df4ecbca6564a4814b511a095"
    },
    {
      "anonymous": false,
      "inputs": [
        {
          "indexed": false,
          "internalType": "bytes32",
          "name": "robotID",
          "type": "bytes32"
        },
        {
          "indexed": false,
          "internalType": "uint256",
          "name": "length",
          "type": "uint256"
        },
        {
          "indexed": false,
          "internalType": "address",
          "name": "user",
          "type": "address"
        }
      ],
      "name": "RobotActivate",
      "type": "event",
      "signature": "0x9724908285d37e8b74a2239b062dc95ad247b27416f980c5c796cc4333f567c5"
    },
    {
      "anonymous": false,
      "inputs": [
        {
          "indexed": false,
          "internalType": "bytes32",
          "name": "robotID",
          "type": "bytes32"
        },
        {
          "indexed": false,
          "internalType": "address",
          "name": "creator",
          "type": "address"
        }
      ],
      "name": "RobotCreated",
      "type": "event",
      "signature": "0xf5c6861bfc204b47a53c3625484a3992ff2864c8e11d3c73195a19bca8e69104"
    },
    {
      "anonymous": false,
      "inputs": [
        {
          "indexed": false,
          "internalType": "address",
          "name": "_from",
          "type": "address"
        },
        {
          "indexed": false,
          "internalType": "address",
          "name": "_to",
          "type": "address"
        },
        {
          "indexed": false,
          "internalType": "uint256[]",
          "name": "_fromBalances",
          "type": "uint256[]"
        },
        {
          "indexed": false,
          "internalType": "uint256[]",
          "name": "_toBalances",
          "type": "uint256[]"
        }
      ],
      "name": "TransferBatchReceiver",
      "type": "event",
      "signature": "0x342e0fabcfd1ee833d876ecb1c45c3c2128e88b7cb5ba33cb71476504c75ac96"
    },
    {
      "anonymous": false,
      "inputs": [
        {
          "indexed": false,
          "internalType": "address",
          "name": "_from",
          "type": "address"
        },
        {
          "indexed": false,
          "internalType": "address",
          "name": "_to",
          "type": "address"
        },
        {
          "indexed": false,
          "internalType": "uint256",
          "name": "_fromBalance",
          "type": "uint256"
        },
        {
          "indexed": false,
          "internalType": "uint256",
          "name": "_toBalance",
          "type": "uint256"
        }
      ],
      "name": "TransferSingleReceiver",
      "type": "event",
      "signature": "0x35754fc132e57c492c060947310a879a2a3bc6d8360c268803988f6366a5ffa2"
    },
    {
      "constant": true,
      "inputs": [
        {
          "internalType": "address",
          "name": "",
          "type": "address"
        },
        {
          "internalType": "uint256",
          "name": "",
          "type": "uint256"
        }
      ],
      "name": "OwnerBalances",
      "outputs": [
        {
          "internalType": "uint256",
          "name": "",
          "type": "uint256"
        }
      ],
      "payable": false,
      "stateMutability": "view",
      "type": "function",
      "signature": "0x5d52d27d"
    },
    {
      "constant": true,
      "inputs": [
        {
          "internalType": "uint256",
          "name": "",
          "type": "uint256"
        }
      ],
      "name": "RobotOwners",
      "outputs": [
        {
          "internalType": "address",
          "name": "",
          "type": "address"
        }
      ],
      "payable": false,
      "stateMutability": "view",
      "type": "function",
      "signature": "0xb74154de"
    },
    {
      "constant": true,
      "inputs": [
        {
          "internalType": "uint256",
          "name": "",
          "type": "uint256"
        }
      ],
      "name": "Robots",
      "outputs": [
        {
          "internalType": "bytes32",
          "name": "id",
          "type": "bytes32"
        },
        {
          "internalType": "uint256",
          "name": "active",
          "type": "uint256"
        },
        {
          "internalType": "uint256",
          "name": "startTime",
          "type": "uint256"
        },
        {
          "internalType": "uint256",
          "name": "tokenType",
          "type": "uint256"
        }
      ],
      "payable": false,
      "stateMutability": "view",
      "type": "function",
      "signature": "0x68aa2b79"
    },
    {
      "constant": true,
      "inputs": [],
      "name": "lastData",
      "outputs": [
        {
          "internalType": "bytes",
          "name": "",
          "type": "bytes"
        }
      ],
      "payable": false,
      "stateMutability": "view",
      "type": "function",
      "signature": "0x006e75ec"
    },
    {
      "constant": true,
      "inputs": [],
      "name": "lastId",
      "outputs": [
        {
          "internalType": "uint256",
          "name": "",
          "type": "uint256"
        }
      ],
      "payable": false,
      "stateMutability": "view",
      "type": "function",
      "signature": "0xc1292cc3"
    },
    {
      "constant": true,
      "inputs": [],
      "name": "lastOperator",
      "outputs": [
        {
          "internalType": "address",
          "name": "",
          "type": "address"
        }
      ],
      "payable": false,
      "stateMutability": "view",
      "type": "function",
      "signature": "0x6eb3cd49"
    },
    {
      "constant": true,
      "inputs": [],
      "name": "lastValue",
      "outputs": [
        {
          "internalType": "uint256",
          "name": "",
          "type": "uint256"
        }
      ],
      "payable": false,
      "stateMutability": "view",
      "type": "function",
      "signature": "0x43183834"
    },
    {
      "constant": false,
      "inputs": [
        {
          "internalType": "address",
          "name": "_operator",
          "type": "address"
        },
        {
          "internalType": "address",
          "name": "_from",
          "type": "address"
        },
        {
          "internalType": "uint256[]",
          "name": "_ids",
          "type": "uint256[]"
        },
        {
          "internalType": "uint256[]",
          "name": "_values",
          "type": "uint256[]"
        },
        {
          "internalType": "bytes",
          "name": "_data",
          "type": "bytes"
        }
      ],
      "name": "onERC1155BatchReceived",
      "outputs": [
        {
          "internalType": "bytes4",
          "name": "",
          "type": "bytes4"
        }
      ],
      "payable": false,
      "stateMutability": "nonpayable",
      "type": "function",
      "signature": "0xbc197c81"
    },
    {
      "constant": false,
      "inputs": [
        {
          "internalType": "address",
          "name": "_operator",
          "type": "address"
        },
        {
          "internalType": "address",
          "name": "_from",
          "type": "address"
        },
        {
          "internalType": "uint256",
          "name": "_id",
          "type": "uint256"
        },
        {
          "internalType": "uint256",
          "name": "_value",
          "type": "uint256"
        },
        {
          "internalType": "bytes",
          "name": "_data",
          "type": "bytes"
        }
      ],
      "name": "onERC1155Received",
      "outputs": [
        {
          "internalType": "bytes4",
          "name": "",
          "type": "bytes4"
        }
      ],
      "payable": false,
      "stateMutability": "nonpayable",
      "type": "function",
      "signature": "0xf23a6e61"
    },
    {
      "constant": false,
      "inputs": [
        {
          "internalType": "bool",
          "name": "_value",
          "type": "bool"
        }
      ],
      "name": "setShouldReject",
      "outputs": [],
      "payable": false,
      "stateMutability": "nonpayable",
      "type": "function",
      "signature": "0xa175b638"
    },
    {
      "constant": true,
      "inputs": [],
      "name": "shouldReject",
      "outputs": [
        {
          "internalType": "bool",
          "name": "",
          "type": "bool"
        }
      ],
      "payable": false,
      "stateMutability": "view",
      "type": "function",
      "signature": "0x1dbb9381"
    },
    {
      "constant": true,
      "inputs": [
        {
          "internalType": "bytes4",
          "name": "interfaceID",
          "type": "bytes4"
        }
      ],
      "name": "supportsInterface",
      "outputs": [
        {
          "internalType": "bool",
          "name": "",
          "type": "bool"
        }
      ],
      "payable": false,
      "stateMutability": "view",
      "type": "function",
      "signature": "0x01ffc9a7"
    },
    {
      "constant": true,
      "inputs": [],
      "name": "totalRobots",
      "outputs": [
        {
          "internalType": "uint256",
          "name": "",
          "type": "uint256"
        }
      ],
      "payable": false,
      "stateMutability": "view",
      "type": "function",
      "signature": "0x4c961570"
    },
    {
      "constant": false,
      "inputs": [
        {
          "internalType": "uint256[]",
          "name": "_prices",
          "type": "uint256[]"
        },
        {
          "internalType": "uint256[]",
          "name": "_tokenprices",
          "type": "uint256[]"
        },
        {
          "internalType": "uint256[]",
          "name": "_times",
          "type": "uint256[]"
        },
        {
          "internalType": "bytes32",
          "name": "_id",
          "type": "bytes32"
        },
        {
          "internalType": "uint256",
          "name": "_tokenType",
          "type": "uint256"
        }
      ],
      "name": "RegisterRobot",
      "outputs": [],
      "payable": false,
      "stateMutability": "nonpayable",
      "type": "function",
      "signature": "0x7e14a445"
    },
    {
      "constant": false,
      "inputs": [
        {
          "internalType": "uint256",
          "name": "_robot",
          "type": "uint256"
        },
        {
          "internalType": "uint256",
          "name": "_type",
          "type": "uint256"
        }
      ],
      "name": "activateRobot",
      "outputs": [],
      "payable": true,
      "stateMutability": "payable",
      "type": "function",
      "signature": "0xcbb7c625"
    },
    {
      "constant": false,
      "inputs": [
        {
          "internalType": "uint256",
          "name": "_robot",
          "type": "uint256"
        },
        {
          "internalType": "uint256",
          "name": "_type",
          "type": "uint256"
        }
      ],
      "name": "activateRobotwithToken",
      "outputs": [],
      "payable": true,
      "stateMutability": "payable",
      "type": "function",
      "signature": "0x28f90c69"
    },
    {
      "constant": true,
      "inputs": [
        {
          "internalType": "uint256",
          "name": "r",
          "type": "uint256"
        }
      ],
      "name": "getRobotPrices",
      "outputs": [
        {
          "internalType": "uint256[]",
          "name": "",
          "type": "uint256[]"
        }
      ],
      "payable": false,
      "stateMutability": "view",
      "type": "function",
      "signature": "0xf374deb0"
    },
    {
      "constant": true,
      "inputs": [
        {
          "internalType": "uint256",
          "name": "r",
          "type": "uint256"
        }
      ],
      "name": "getRobotTokenPrices",
      "outputs": [
        {
          "internalType": "uint256[]",
          "name": "",
          "type": "uint256[]"
        }
      ],
      "payable": false,
      "stateMutability": "view",
      "type": "function",
      "signature": "0xe0a979ca"
    },
    {
      "constant": true,
      "inputs": [
        {
          "internalType": "uint256",
          "name": "r",
          "type": "uint256"
        }
      ],
      "name": "getRobotTimes",
      "outputs": [
        {
          "internalType": "uint256[]",
          "name": "",
          "type": "uint256[]"
        }
      ],
      "payable": false,
      "stateMutability": "view",
      "type": "function",
      "signature": "0x338a7868"
    },
    {
      "constant": false,
      "inputs": [
        {
          "internalType": "uint256",
          "name": "_id",
          "type": "uint256"
        },
        {
          "internalType": "uint256",
          "name": "_type",
          "type": "uint256"
        }
      ],
      "name": "getRobotData",
      "outputs": [],
      "payable": false,
      "stateMutability": "nonpayable",
      "type": "function",
      "signature": "0x95ae1af5"
    },
    {
      "constant": false,
      "inputs": [
        {
          "internalType": "uint256",
          "name": "_type",
          "type": "uint256"
        }
      ],
      "name": "withdrawEarning",
      "outputs": [],
      "payable": false,
      "stateMutability": "nonpayable",
      "type": "function",
      "signature": "0xdf32dc5c"
    }
  ],
  "bytecode": "0x608060405234801561001057600080fd5b5060405161288e38038061288e8339818101604052602081101561003357600080fd5b810190808051906020019092919050505080600560006101000a81548173ffffffffffffffffffffffffffffffffffffffff021916908373ffffffffffffffffffffffffffffffffffffffff160217905550506127f9806100956000396000f3fe6080604052600436106101295760003560e01c80637e14a445116100ab578063c1292cc31161006f578063c1292cc314610a27578063cbb7c62514610a52578063df32dc5c14610a8a578063e0a979ca14610ac5578063f23a6e6114610b55578063f374deb014610cc357610129565b80637e14a445146104a757806395ae1af5146106a8578063a175b638146106ed578063b74154de1461072a578063bc197c81146107a557610129565b806343183834116100f257806343183834146103275780634c961570146103525780635d52d27d1461037d57806368aa2b79146103ec5780636eb3cd491461045057610129565b80626e75ec1461012e57806301ffc9a7146101be5780631dbb93811461023057806328f90c691461025f578063338a786814610297575b600080fd5b34801561013a57600080fd5b50610143610d53565b6040518080602001828103825283818151815260200191508051906020019080838360005b83811015610183578082015181840152602081019050610168565b50505050905090810190601f1680156101b05780820380516001836020036101000a031916815260200191505b509250505060405180910390f35b3480156101ca57600080fd5b50610216600480360360208110156101e157600080fd5b8101908080357bffffffffffffffffffffffffffffffffffffffffffffffffffffffff19169060200190929190505050610df1565b604051808215151515815260200191505060405180910390f35b34801561023c57600080fd5b50610245610e53565b604051808215151515815260200191505060405180910390f35b6102956004803603604081101561027557600080fd5b810190808035906020019092919080359060200190929190505050610e65565b005b3480156102a357600080fd5b506102d0600480360360208110156102ba57600080fd5b81019080803590602001909291905050506113f1565b6040518080602001828103825283818151815260200191508051906020019060200280838360005b838110156103135780820151818401526020810190506102f8565b505050509050019250505060405180910390f35b34801561033357600080fd5b5061033c61145f565b6040518082815260200191505060405180910390f35b34801561035e57600080fd5b50610367611465565b6040518082815260200191505060405180910390f35b34801561038957600080fd5b506103d6600480360360408110156103a057600080fd5b81019080803573ffffffffffffffffffffffffffffffffffffffff1690602001909291908035906020019092919050505061146b565b6040518082815260200191505060405180910390f35b3480156103f857600080fd5b506104256004803603602081101561040f57600080fd5b8101908080359060200190929190505050611490565b6040518085815260200184815260200183815260200182815260200194505050505060405180910390f35b34801561045c57600080fd5b506104656114c0565b604051808273ffffffffffffffffffffffffffffffffffffffff1673ffffffffffffffffffffffffffffffffffffffff16815260200191505060405180910390f35b3480156104b357600080fd5b506106a6600480360360a08110156104ca57600080fd5b81019080803590602001906401000000008111156104e757600080fd5b8201836020820111156104f957600080fd5b8035906020019184602083028401116401000000008311171561051b57600080fd5b919080806020026020016040519081016040528093929190818152602001838360200280828437600081840152601f19601f8201169050808301925050505050505091929192908035906020019064010000000081111561057b57600080fd5b82018360208201111561058d57600080fd5b803590602001918460208302840111640100000000831117156105af57600080fd5b919080806020026020016040519081016040528093929190818152602001838360200280828437600081840152601f19601f8201169050808301925050505050505091929192908035906020019064010000000081111561060f57600080fd5b82018360208201111561062157600080fd5b8035906020019184602083028401116401000000008311171561064357600080fd5b919080806020026020016040519081016040528093929190818152602001838360200280828437600081840152601f19601f82011690508083019250505050505050919291929080359060200190929190803590602001909291905050506114e6565b005b3480156106b457600080fd5b506106eb600480360360408110156106cb57600080fd5b8101908080359060200190929190803590602001909291905050506116e7565b005b3480156106f957600080fd5b506107286004803603602081101561071057600080fd5b8101908080351515906020019092919050505061175e565b005b34801561073657600080fd5b506107636004803603602081101561074d57600080fd5b810190808035906020019092919050505061177a565b604051808273ffffffffffffffffffffffffffffffffffffffff1673ffffffffffffffffffffffffffffffffffffffff16815260200191505060405180910390f35b3480156107b157600080fd5b506109d3600480360360a08110156107c857600080fd5b81019080803573ffffffffffffffffffffffffffffffffffffffff169060200190929190803573ffffffffffffffffffffffffffffffffffffffff1690602001909291908035906020019064010000000081111561082557600080fd5b82018360208201111561083757600080fd5b8035906020019184602083028401116401000000008311171561085957600080fd5b919080806020026020016040519081016040528093929190818152602001838360200280828437600081840152601f19601f820116905080830192505050505050509192919290803590602001906401000000008111156108b957600080fd5b8201836020820111156108cb57600080fd5b803590602001918460208302840111640100000000831117156108ed57600080fd5b919080806020026020016040519081016040528093929190818152602001838360200280828437600081840152601f19601f8201169050808301925050505050505091929192908035906020019064010000000081111561094d57600080fd5b82018360208201111561095f57600080fd5b8035906020019184600183028401116401000000008311171561098157600080fd5b91908080601f016020809104026020016040519081016040528093929190818152602001838380828437600081840152601f19601f8201169050808301925050505050505091929192905050506117ad565b60405180827bffffffffffffffffffffffffffffffffffffffffffffffffffffffff19167bffffffffffffffffffffffffffffffffffffffffffffffffffffffff1916815260200191505060405180910390f35b348015610a3357600080fd5b50610a3c611d9b565b6040518082815260200191505060405180910390f35b610a8860048036036040811015610a6857600080fd5b810190808035906020019092919080359060200190929190505050611da1565b005b348015610a9657600080fd5b50610ac360048036036020811015610aad57600080fd5b8101908080359060200190929190505050612262565b005b348015610ad157600080fd5b50610afe60048036036020811015610ae857600080fd5b81019080803590602001909291905050506123c6565b6040518080602001828103825283818151815260200191508051906020019060200280838360005b83811015610b41578082015181840152602081019050610b26565b505050509050019250505060405180910390f35b348015610b6157600080fd5b50610c6f600480360360a0811015610b7857600080fd5b81019080803573ffffffffffffffffffffffffffffffffffffffff169060200190929190803573ffffffffffffffffffffffffffffffffffffffff169060200190929190803590602001909291908035906020019092919080359060200190640100000000811115610be957600080fd5b820183602082011115610bfb57600080fd5b80359060200191846001830284011164010000000083111715610c1d57600080fd5b91908080601f016020809104026020016040519081016040528093929190818152602001838380828437600081840152601f19601f820116905080830192505050505050509192919290505050612434565b60405180827bffffffffffffffffffffffffffffffffffffffffffffffffffffffff19167bffffffffffffffffffffffffffffffffffffffffffffffffffffffff1916815260200191505060405180910390f35b348015610ccf57600080fd5b50610cfc60048036036020811015610ce657600080fd5b81019080803590602001909291905050506126a4565b6040518080602001828103825283818151815260200191508051906020019060200280838360005b83811015610d3f578082015181840152602081019050610d24565b505050509050019250505060405180910390f35b60018054600181600116156101000203166002900480601f016020809104026020016040519081016040528092919081815260200182805460018160011615610100020316600290048015610de95780601f10610dbe57610100808354040283529160200191610de9565b820191906000526020600020905b815481529060010190602001808311610dcc57829003601f168201915b505050505081565b60006301ffc9a760e01b827bffffffffffffffffffffffffffffffffffffffffffffffffffffffff19161480610e4c5750634e2312e060e01b827bffffffffffffffffffffffffffffffffffffffffffffffffffffffff1916145b9050919050565b6000809054906101000a900460ff1681565b610e6d612712565b600760008481526020019081526020016000206040518060e001604052908160008201548152602001600182015481526020016002820154815260200160038201805480602002602001604051908101604052809291908181526020018280548015610ef857602002820191906000526020600020905b815481526020019060010190808311610ee4575b5050505050815260200160048201805480602002602001604051908101604052809291908181526020018280548015610f5057602002820191906000526020600020905b815481526020019060010190808311610f3c575b5050505050815260200160058201805480602002602001604051908101604052809291908181526020018280548015610fa857602002820191906000526020600020905b815481526020019060010190808311610f94575b505050505081526020016006820154815250509050600081606001518381518110610fcf57fe5b60200260200101511161104a576040517f08c379a00000000000000000000000000000000000000000000000000000000081526004018080602001828103825260198152602001807f73657373696f6e206c656e677468206d7573742065786973740000000000000081525060200191505060405180910390fd5b8060600151828151811061105a57fe5b602002602001015181604001514203116110dc576040517f08c379a000000000000000000000000000000000000000000000000000000000815260040180806020018281038252601a8152602001807f726f626f742069732063757272656e746c79202061637469766500000000000081525060200191505060405180910390fd5b600560009054906101000a900473ffffffffffffffffffffffffffffffffffffffff1673ffffffffffffffffffffffffffffffffffffffff1663f242432a33308460c001518560a00151878151811061113157fe5b60200260200101516040518563ffffffff1660e01b8152600401808573ffffffffffffffffffffffffffffffffffffffff1673ffffffffffffffffffffffffffffffffffffffff1681526020018473ffffffffffffffffffffffffffffffffffffffff1673ffffffffffffffffffffffffffffffffffffffff1681526020018381526020018281526020018060200182810382526000815260200160200195505050505050600060405180830381600087803b1580156111f057600080fd5b505af1158015611204573d6000803e3d6000fd5b5050505042816040018181525050818160200181815250508060076000858152602001908152602001600020600082015181600001556020820151816001015560408201518160020155606082015181600301908051906020019061126a929190612752565b506080820151816004019080519060200190611287929190612752565b5060a08201518160050190805190602001906112a4929190612752565b5060c082015181600601559050507f9724908285d37e8b74a2239b062dc95ad247b27416f980c5c796cc4333f567c58160000151826060015184815181106112e857fe5b602002602001015133604051808481526020018381526020018273ffffffffffffffffffffffffffffffffffffffff1673ffffffffffffffffffffffffffffffffffffffff168152602001935050505060405180910390a18060800151828151811061135057fe5b6020026020010151600960006008600087815260200190815260200160002060009054906101000a900473ffffffffffffffffffffffffffffffffffffffff1673ffffffffffffffffffffffffffffffffffffffff1673ffffffffffffffffffffffffffffffffffffffff16815260200190815260200160002060008360c00151815260200190815260200160002060008282540192505081905550505050565b60606007600083815260200190815260200160002060030180548060200260200160405190810160405280929190818152602001828054801561145357602002820191906000526020600020905b81548152602001906001019080831161143f575b50505050509050919050565b60045481565b60065481565b6009602052816000526040600020602052806000526040600020600091509150505481565b60076020528060005260406000206000915090508060000154908060010154908060020154908060060154905084565b600260009054906101000a900473ffffffffffffffffffffffffffffffffffffffff1681565b8251855114611538576040517f08c379a0000000000000000000000000000000000000000000000000000000008152600401808060200182810382526000815260200160200191505060405180910390fd5b6001600660008282540192505081905550611551612712565b6040518060e0016040528084815260200160008152602001600081526020018581526020018781526020018681526020018381525090508060076000600654815260200190815260200160002060008201518160000155602082015181600101556040820151816002015560608201518160030190805190602001906115d8929190612752565b5060808201518160040190805190602001906115f5929190612752565b5060a0820151816005019080519060200190611612929190612752565b5060c082015181600601559050503360086000600654815260200190815260200160002060006101000a81548173ffffffffffffffffffffffffffffffffffffffff021916908373ffffffffffffffffffffffffffffffffffffffff1602179055507ff5c6861bfc204b47a53c3625484a3992ff2864c8e11d3c73195a19bca8e691048333604051808381526020018273ffffffffffffffffffffffffffffffffffffffff1673ffffffffffffffffffffffffffffffffffffffff1681526020019250505060405180910390a1505050505050565b7f5877d639a3a3aeaa9ee7f623b099e8ae5e1c7a5df4ecbca6564a4814b511a095338383604051808473ffffffffffffffffffffffffffffffffffffffff1673ffffffffffffffffffffffffffffffffffffffff168152602001838152602001828152602001935050505060405180910390a15050565b806000806101000a81548160ff02191690831515021790555050565b60086020528060005260406000206000915054906101000a900473ffffffffffffffffffffffffffffffffffffffff1681565b6000606084516040519080825280602002602001820160405280156117e15781602001602082028038833980820191505090505b509050606085516040519080825280602002602001820160405280156118165781602001602082028038833980820191505090505b50905060008090505b86518110156118c3578783828151811061183557fe5b602002602001019073ffffffffffffffffffffffffffffffffffffffff16908173ffffffffffffffffffffffffffffffffffffffff16815250503082828151811061187c57fe5b602002602001019073ffffffffffffffffffffffffffffffffffffffff16908173ffffffffffffffffffffffffffffffffffffffff1681525050808060010191505061181f565b5060603373ffffffffffffffffffffffffffffffffffffffff16634e1273f484896040518363ffffffff1660e01b8152600401808060200180602001838103835285818151815260200191508051906020019060200280838360005b8381101561193a57808201518184015260208101905061191f565b50505050905001838103825284818151815260200191508051906020019060200280838360005b8381101561197c578082015181840152602081019050611961565b5050505090500194505050505060006040518083038186803b1580156119a157600080fd5b505afa1580156119b5573d6000803e3d6000fd5b505050506040513d6000823e3d601f19601f8201168201806040525060208110156119df57600080fd5b81019080805160405193929190846401000000008211156119ff57600080fd5b83820191506020820185811115611a1557600080fd5b8251866020820283011164010000000082111715611a3257600080fd5b8083526020830192505050908051906020019060200280838360005b83811015611a69578082015181840152602081019050611a4e565b50505050905001604052505050905060603373ffffffffffffffffffffffffffffffffffffffff16634e1273f4848a6040518363ffffffff1660e01b8152600401808060200180602001838103835285818151815260200191508051906020019060200280838360005b83811015611aee578082015181840152602081019050611ad3565b50505050905001838103825284818151815260200191508051906020019060200280838360005b83811015611b30578082015181840152602081019050611b15565b5050505090500194505050505060006040518083038186803b158015611b5557600080fd5b505afa158015611b69573d6000803e3d6000fd5b505050506040513d6000823e3d601f19601f820116820180604052506020811015611b9357600080fd5b8101908080516040519392919084640100000000821115611bb357600080fd5b83820191506020820185811115611bc957600080fd5b8251866020820283011164010000000082111715611be657600080fd5b8083526020830192505050908051906020019060200280838360005b83811015611c1d578082015181840152602081019050611c02565b5050505090500160405250505090507f342e0fabcfd1ee833d876ecb1c45c3c2128e88b7cb5ba33cb71476504c75ac9689308484604051808573ffffffffffffffffffffffffffffffffffffffff1673ffffffffffffffffffffffffffffffffffffffff1681526020018473ffffffffffffffffffffffffffffffffffffffff1673ffffffffffffffffffffffffffffffffffffffff1681526020018060200180602001838103835285818151815260200191508051906020019060200280838360005b83811015611cfc578082015181840152602081019050611ce1565b50505050905001838103825284818151815260200191508051906020019060200280838360005b83811015611d3e578082015181840152602081019050611d23565b50505050905001965050505050505060405180910390a1600115156000809054906101000a900460ff1615151415611d835763deadbeef60e01b945050505050611d92565b63bc197c8160e01b9450505050505b95945050505050565b60035481565b611da9612712565b600760008481526020019081526020016000206040518060e001604052908160008201548152602001600182015481526020016002820154815260200160038201805480602002602001604051908101604052809291908181526020018280548015611e3457602002820191906000526020600020905b815481526020019060010190808311611e20575b5050505050815260200160048201805480602002602001604051908101604052809291908181526020018280548015611e8c57602002820191906000526020600020905b815481526020019060010190808311611e78575b5050505050815260200160058201805480602002602001604051908101604052809291908181526020018280548015611ee457602002820191906000526020600020905b815481526020019060010190808311611ed0575b505050505081526020016006820154815250509050600081606001518381518110611f0b57fe5b602002602001015111611f86576040517f08c379a00000000000000000000000000000000000000000000000000000000081526004018080602001828103825260198152602001807f73657373696f6e206c656e677468206d7573742065786973740000000000000081525060200191505060405180910390fd5b80606001518281518110611f9657fe5b60200260200101518160400151420311612018576040517f08c379a000000000000000000000000000000000000000000000000000000000815260040180806020018281038252601a8152602001807f726f626f742069732063757272656e746c79202061637469766500000000000081525060200191505060405180910390fd5b8060800151828151811061202857fe5b60200260200101513410156120a5576040517f08c379a00000000000000000000000000000000000000000000000000000000081526004018080602001828103825260158152602001807f6d757374207061792076616c696420616d6f756e74000000000000000000000081525060200191505060405180910390fd5b428160400181815250508181602001818152505080600760008581526020019081526020016000206000820151816000015560208201518160010155604082015181600201556060820151816003019080519060200190612107929190612752565b506080820151816004019080519060200190612124929190612752565b5060a0820151816005019080519060200190612141929190612752565b5060c082015181600601559050507f9724908285d37e8b74a2239b062dc95ad247b27416f980c5c796cc4333f567c581600001518260600151848151811061218557fe5b602002602001015133604051808481526020018381526020018273ffffffffffffffffffffffffffffffffffffffff1673ffffffffffffffffffffffffffffffffffffffff168152602001935050505060405180910390a134600a60006008600087815260200190815260200160002060009054906101000a900473ffffffffffffffffffffffffffffffffffffffff1673ffffffffffffffffffffffffffffffffffffffff1673ffffffffffffffffffffffffffffffffffffffff16815260200190815260200160002060008282540192505081905550505050565b600560009054906101000a900473ffffffffffffffffffffffffffffffffffffffff1673ffffffffffffffffffffffffffffffffffffffff1663f242432a303384600960003373ffffffffffffffffffffffffffffffffffffffff1673ffffffffffffffffffffffffffffffffffffffff1681526020019081526020016000206000878152602001908152602001600020546040518563ffffffff1660e01b8152600401808573ffffffffffffffffffffffffffffffffffffffff1673ffffffffffffffffffffffffffffffffffffffff1681526020018473ffffffffffffffffffffffffffffffffffffffff1673ffffffffffffffffffffffffffffffffffffffff1681526020018381526020018281526020018060200182810382526000815260200160200195505050505050600060405180830381600087803b1580156123ab57600080fd5b505af11580156123bf573d6000803e3d6000fd5b5050505050565b60606007600083815260200190815260200160002060040180548060200260200160405190810160405280929190818152602001828054801561242857602002820191906000526020600020905b815481526020019060010190808311612414575b50505050509050919050565b6000803373ffffffffffffffffffffffffffffffffffffffff1662fdd58e87876040518363ffffffff1660e01b8152600401808373ffffffffffffffffffffffffffffffffffffffff1673ffffffffffffffffffffffffffffffffffffffff1681526020018281526020019250505060206040518083038186803b1580156124bb57600080fd5b505afa1580156124cf573d6000803e3d6000fd5b505050506040513d60208110156124e557600080fd5b8101908080519060200190929190505050905060003373ffffffffffffffffffffffffffffffffffffffff1662fdd58e30886040518363ffffffff1660e01b8152600401808373ffffffffffffffffffffffffffffffffffffffff1673ffffffffffffffffffffffffffffffffffffffff1681526020018281526020019250505060206040518083038186803b15801561257e57600080fd5b505afa158015612592573d6000803e3d6000fd5b505050506040513d60208110156125a857600080fd5b810190808051906020019092919050505090507f35754fc132e57c492c060947310a879a2a3bc6d8360c268803988f6366a5ffa287308484604051808573ffffffffffffffffffffffffffffffffffffffff1673ffffffffffffffffffffffffffffffffffffffff1681526020018473ffffffffffffffffffffffffffffffffffffffff1673ffffffffffffffffffffffffffffffffffffffff16815260200183815260200182815260200194505050505060405180910390a1600115156000809054906101000a900460ff161515141561268e5763deadbeef60e01b9250505061269b565b63f23a6e6160e01b925050505b95945050505050565b60606007600083815260200190815260200160002060040180548060200260200160405190810160405280929190818152602001828054801561270657602002820191906000526020600020905b8154815260200190600101908083116126f2575b50505050509050919050565b6040518060e00160405280600080191681526020016000815260200160008152602001606081526020016060815260200160608152602001600081525090565b82805482825590600052602060002090810192821561278e579160200282015b8281111561278d578251825591602001919060010190612772565b5b50905061279b919061279f565b5090565b6127c191905b808211156127bd5760008160009055506001016127a5565b5090565b9056fea265627a7a72315820b61bb91d66468c20fe6d864275752bc2ee05047f51df2b70010041cd3c2c19c264736f6c63430005100032",
  "source": "pragma solidity ^0.5.16;\n\nimport \"./RobotData.sol\";\nimport \"multi-token-standard/contracts/mocks/ERC1155ReceiverMock.sol\";\ncontract RobotRequestToken is ERC1155ReceiverMock{\nRobotData Rtoken;\n\nconstructor(address token) public{\n    Rtoken=RobotData(token);\n}\n\nstruct RobotInfo{\n    bytes32 id;\n    uint active;\n    uint  startTime;\n    uint[] sessionOptions;\n    uint[] sessionPrices;\n    uint[] sessionTokenPrices;\n    uint tokenType;\n}\n\nuint public totalRobots;\nmapping (uint=>RobotInfo) public Robots;\nmapping(uint=>address) public RobotOwners;\nmapping(address=>mapping(uint=>uint)) public OwnerBalances;\nmapping(address=>uint) OwnerEthBalances;\nevent RobotActivate(bytes32 robotID,uint length,address user);\nevent DataRequested(address user,uint robotID,uint DataType);\nevent RobotCreated(bytes32 robotID,address creator);\n\n\n\nfunction RegisterRobot(uint[] memory _prices,uint[] memory _tokenprices,uint[] memory _times,bytes32 _id,uint _tokenType) public {\n    require(_prices.length==_times.length,\"\");\n     totalRobots+=1;\n     RobotInfo memory R= RobotInfo(_id,0,0,_times,_prices,_tokenprices,_tokenType);\n     Robots[totalRobots]=R;\n     RobotOwners[totalRobots]=msg.sender;\n     emit RobotCreated(_id,msg.sender);\n}\n\nfunction activateRobot(uint _robot,uint _type) public payable{\n    RobotInfo memory r=Robots[_robot];\n    require(r.sessionOptions[_type]>0,\"session length must exist\");\n    require(now-r.startTime>r.sessionOptions[_type],\"robot is currently  active\");\n    require(msg.value>=r.sessionPrices[_type],\"must pay valid amount\");\n    r.startTime=now;\n    r.active=_type;\n    Robots[_robot]=r;\n    emit RobotActivate(r.id,r.sessionOptions[_type],msg.sender);\n    OwnerEthBalances[RobotOwners[_robot]]+=msg.value;\n}\nfunction activateRobotwithToken(uint _robot,uint _type) public payable{\n    RobotInfo memory r=Robots[_robot];\n    require(r.sessionOptions[_type]>0,\"session length must exist\");\n    require(now-r.startTime>r.sessionOptions[_type],\"robot is currently  active\");\n    //require(msg.value>=r.sessionPrices[_type],\"must pay valid amount\");\n    Rtoken.safeTransferFrom(msg.sender,address(this),r.tokenType,r.sessionTokenPrices[_type],\"\");\n    r.startTime=now;\n    r.active=_type;\n    Robots[_robot]=r;\n    emit RobotActivate(r.id,r.sessionOptions[_type],msg.sender);\n    OwnerBalances[RobotOwners[_robot]][r.tokenType]+=r.sessionPrices[_type];\n}\nfunction getRobotPrices(uint r) public view returns(uint[] memory) {\n    return Robots[r].sessionPrices;\n}\nfunction getRobotTokenPrices(uint r) public view returns(uint[] memory) {\n    return Robots[r].sessionPrices;\n}\nfunction getRobotTimes(uint r) public view returns(uint[] memory) {\n    return Robots[r].sessionOptions;\n}\nfunction getRobotData(uint _id, uint _type) public {\n    emit DataRequested(msg.sender,_id ,_type);\n}\n\nfunction withdrawEarning(uint _type) public {\n    //require(OwnerBalances[msg.sender]>0);\n    Rtoken.safeTransferFrom(address(this),msg.sender,_type,OwnerBalances[msg.sender][_type],\"\");\n}\n\n\n\n\n\n}",
  "sourcePath": "/home/john/Documents/Code/Hackathons/ETHDenver/ETHDenver2020Contracts/contracts/RobotRequestToken.sol",
  "compiler": {
    "name": "solc",
    "version": "0.5.16+commit.9c3226ce.Emscripten.clang"
  },
  "schemaVersion": "3.0.5",
  "updatedAt": "2020-02-16T13:30:55.667Z",
  "devdoc": {
    "methods": {
      "onERC1155BatchReceived(address,address,uint256[],uint256[],bytes)": {
        "details": "An ERC1155-compliant smart contract MUST call this function on the token recipient contract, at the end of a `safeBatchTransferFrom` after the balances have been updated. This function MAY throw to revert and reject the transfer. Return of other than the magic value WILL result in the transaction being reverted. Note: The contract address is always the message sender.",
        "params": {
          "_data": "Additional data with no specified format",
          "_from": "The address which previously owned the token",
          "_ids": "An array containing ids of each token being transferred",
          "_operator": "The address which called the `safeBatchTransferFrom` function",
          "_values": "An array containing amounts of each token being transferred"
        },
        "return": "`bytes4(keccak256(\"onERC1155BatchReceived(address,address,uint256[],uint256[],bytes)\"))`"
      },
      "onERC1155Received(address,address,uint256,uint256,bytes)": {
        "details": "An ERC1155-compliant smart contract MUST call this function on the token recipient contract, at the end of a `safeTransferFrom` after the balance has been updated. This function MAY throw to revert and reject the transfer. Return of other than the magic value MUST result in the transaction being reverted. Note: The contract address is always the message sender.",
        "params": {
          "_data": "Additional data with no specified format",
          "_from": "The address which previously owned the token",
          "_id": "The id of the token being transferred",
          "_operator": "The address which called the `safeTransferFrom` function",
          "_value": "The amount of tokens being transferred"
        },
        "return": "`bytes4(keccak256(\"onERC1155Received(address,address,uint256,uint256,bytes)\"))`"
      },
      "supportsInterface(bytes4)": {
        "details": "This function MUST return true if it implements the ERC1155TokenReceiver interface and ERC-165 interface.     This function MUST NOT consume more than 5,000 gas.",
        "params": {
          "interfaceID": "The ERC-165 interface ID that is queried for support.s"
        },
        "return": "Wheter ERC-165 or ERC1155TokenReceiver interfaces are supported."
      }
    }
  },
  "userdoc": {
    "methods": {
      "onERC1155BatchReceived(address,address,uint256[],uint256[],bytes)": {
        "notice": "Handle the receipt of multiple ERC1155 token types."
      },
      "onERC1155Received(address,address,uint256,uint256,bytes)": {
        "notice": "Handle the receipt of a single ERC1155 token type."
      },
      "supportsInterface(bytes4)": {
        "notice": "Indicates whether a contract implements the `ERC1155TokenReceiver` functions and so can accept ERC1155 token types."
      }
    }
  }
}