{
  "contractName": "RobotRequest",
  "abi": [
    {
      "anonymous": false,
      "inputs": [
        {
          "indexed": false,
          "internalType": "address",
          "name": "user",
          "type": "address"
        },
        {
          "indexed": false,
          "internalType": "uint256",
          "name": "robotID",
          "type": "uint256"
        },
        {
          "indexed": false,
          "internalType": "uint256",
          "name": "DataType",
          "type": "uint256"
        }
      ],
      "name": "DataRequested",
      "type": "event",
      "signature": "0x5877d639a3a3aeaa9ee7f623b099e8ae5e1c7a5df4ecbca6564a4814b511a095"
    },
    {
      "anonymous": false,
      "inputs": [
        {
          "indexed": false,
          "internalType": "bytes32",
          "name": "robotID",
          "type": "bytes32"
        },
        {
          "indexed": false,
          "internalType": "uint256",
          "name": "length",
          "type": "uint256"
        },
        {
          "indexed": false,
          "internalType": "address",
          "name": "user",
          "type": "address"
        }
      ],
      "name": "RobotActivate",
      "type": "event",
      "signature": "0x9724908285d37e8b74a2239b062dc95ad247b27416f980c5c796cc4333f567c5"
    },
    {
      "anonymous": false,
      "inputs": [
        {
          "indexed": false,
          "internalType": "bytes32",
          "name": "robotID",
          "type": "bytes32"
        },
        {
          "indexed": false,
          "internalType": "address",
          "name": "creator",
          "type": "address"
        }
      ],
      "name": "RobotCreated",
      "type": "event",
      "signature": "0xf5c6861bfc204b47a53c3625484a3992ff2864c8e11d3c73195a19bca8e69104"
    },
    {
      "constant": true,
      "inputs": [
        {
          "internalType": "address",
          "name": "",
          "type": "address"
        }
      ],
      "name": "OwnerBalances",
      "outputs": [
        {
          "internalType": "uint256",
          "name": "",
          "type": "uint256"
        }
      ],
      "payable": false,
      "stateMutability": "view",
      "type": "function",
      "signature": "0x2757460a"
    },
    {
      "constant": true,
      "inputs": [
        {
          "internalType": "uint256",
          "name": "",
          "type": "uint256"
        }
      ],
      "name": "RobotOwners",
      "outputs": [
        {
          "internalType": "address",
          "name": "",
          "type": "address"
        }
      ],
      "payable": false,
      "stateMutability": "view",
      "type": "function",
      "signature": "0xb74154de"
    },
    {
      "constant": true,
      "inputs": [
        {
          "internalType": "uint256",
          "name": "",
          "type": "uint256"
        }
      ],
      "name": "Robots",
      "outputs": [
        {
          "internalType": "bytes32",
          "name": "id",
          "type": "bytes32"
        },
        {
          "internalType": "uint256",
          "name": "active",
          "type": "uint256"
        },
        {
          "internalType": "uint256",
          "name": "startTime",
          "type": "uint256"
        }
      ],
      "payable": false,
      "stateMutability": "view",
      "type": "function",
      "signature": "0x68aa2b79"
    },
    {
      "constant": true,
      "inputs": [],
      "name": "totalRobots",
      "outputs": [
        {
          "internalType": "uint256",
          "name": "",
          "type": "uint256"
        }
      ],
      "payable": false,
      "stateMutability": "view",
      "type": "function",
      "signature": "0x4c961570"
    },
    {
      "constant": false,
      "inputs": [
        {
          "internalType": "uint256[]",
          "name": "_prices",
          "type": "uint256[]"
        },
        {
          "internalType": "uint256[]",
          "name": "_times",
          "type": "uint256[]"
        },
        {
          "internalType": "bytes32",
          "name": "_id",
          "type": "bytes32"
        }
      ],
      "name": "RegisterRobot",
      "outputs": [],
      "payable": false,
      "stateMutability": "nonpayable",
      "type": "function",
      "signature": "0x8602c1e1"
    },
    {
      "constant": false,
      "inputs": [
        {
          "internalType": "uint256",
          "name": "_robot",
          "type": "uint256"
        },
        {
          "internalType": "uint256",
          "name": "_type",
          "type": "uint256"
        }
      ],
      "name": "activateRobot",
      "outputs": [],
      "payable": true,
      "stateMutability": "payable",
      "type": "function",
      "signature": "0xcbb7c625"
    },
    {
      "constant": true,
      "inputs": [
        {
          "internalType": "uint256",
          "name": "r",
          "type": "uint256"
        }
      ],
      "name": "getRobotPrices",
      "outputs": [
        {
          "internalType": "uint256[]",
          "name": "",
          "type": "uint256[]"
        }
      ],
      "payable": false,
      "stateMutability": "view",
      "type": "function",
      "signature": "0xf374deb0"
    },
    {
      "constant": true,
      "inputs": [
        {
          "internalType": "uint256",
          "name": "r",
          "type": "uint256"
        }
      ],
      "name": "getRobotTimes",
      "outputs": [
        {
          "internalType": "uint256[]",
          "name": "",
          "type": "uint256[]"
        }
      ],
      "payable": false,
      "stateMutability": "view",
      "type": "function",
      "signature": "0x338a7868"
    },
    {
      "constant": false,
      "inputs": [
        {
          "internalType": "uint256",
          "name": "_id",
          "type": "uint256"
        },
        {
          "internalType": "uint256",
          "name": "_type",
          "type": "uint256"
        }
      ],
      "name": "getRobotData",
      "outputs": [],
      "payable": false,
      "stateMutability": "nonpayable",
      "type": "function",
      "signature": "0x95ae1af5"
    },
    {
      "constant": false,
      "inputs": [],
      "name": "withdrawEarning",
      "outputs": [],
      "payable": false,
      "stateMutability": "nonpayable",
      "type": "function",
      "signature": "0x899161a0"
    }
  ],
  "bytecode": "0x608060405234801561001057600080fd5b50610e91806100206000396000f3fe6080604052600436106100915760003560e01c8063899161a011610059578063899161a01461037657806395ae1af51461038d578063b74154de146103d2578063cbb7c6251461044d578063f374deb01461048557610091565b80632757460a14610096578063338a7868146100fb5780634c9615701461018b57806368aa2b79146101b65780638602c1e114610213575b600080fd5b3480156100a257600080fd5b506100e5600480360360208110156100b957600080fd5b81019080803573ffffffffffffffffffffffffffffffffffffffff169060200190929190505050610515565b6040518082815260200191505060405180910390f35b34801561010757600080fd5b506101346004803603602081101561011e57600080fd5b810190808035906020019092919050505061052d565b6040518080602001828103825283818151815260200191508051906020019060200280838360005b8381101561017757808201518184015260208101905061015c565b505050509050019250505060405180910390f35b34801561019757600080fd5b506101a061059b565b6040518082815260200191505060405180910390f35b3480156101c257600080fd5b506101ef600480360360208110156101d957600080fd5b81019080803590602001909291905050506105a1565b60405180848152602001838152602001828152602001935050505060405180910390f35b34801561021f57600080fd5b506103746004803603606081101561023657600080fd5b810190808035906020019064010000000081111561025357600080fd5b82018360208201111561026557600080fd5b8035906020019184602083028401116401000000008311171561028757600080fd5b919080806020026020016040519081016040528093929190818152602001838360200280828437600081840152601f19601f820116905080830192505050505050509192919290803590602001906401000000008111156102e757600080fd5b8201836020820111156102f957600080fd5b8035906020019184602083028401116401000000008311171561031b57600080fd5b919080806020026020016040519081016040528093929190818152602001838360200280828437600081840152601f19601f820116905080830192505050505050509192919290803590602001909291905050506105cb565b005b34801561038257600080fd5b5061038b610794565b005b34801561039957600080fd5b506103d0600480360360408110156103b057600080fd5b810190808035906020019092919080359060200190929190505050610868565b005b3480156103de57600080fd5b5061040b600480360360208110156103f557600080fd5b81019080803590602001909291905050506108df565b604051808273ffffffffffffffffffffffffffffffffffffffff1673ffffffffffffffffffffffffffffffffffffffff16815260200191505060405180910390f35b6104836004803603604081101561046357600080fd5b810190808035906020019092919080359060200190929190505050610912565b005b34801561049157600080fd5b506104be600480360360208110156104a857600080fd5b8101908080359060200190929190505050610d4a565b6040518080602001828103825283818151815260200191508051906020019060200280838360005b838110156105015780820151818401526020810190506104e6565b505050509050019250505060405180910390f35b60036020528060005260406000206000915090505481565b60606001600083815260200190815260200160002060030180548060200260200160405190810160405280929190818152602001828054801561058f57602002820191906000526020600020905b81548152602001906001019080831161057b575b50505050509050919050565b60005481565b60016020528060005260406000206000915090508060000154908060010154908060020154905083565b815183511461061d576040517f08c379a0000000000000000000000000000000000000000000000000000000008152600401808060200182810382526000815260200160200191505060405180910390fd5b60016000808282540192505081905550610635610db8565b6040518060a00160405280838152602001600081526020016000815260200184815260200185815250905080600160008054815260200190815260200160002060008201518160000155602082015181600101556040820151816002015560608201518160030190805190602001906106af929190610dea565b5060808201518160040190805190602001906106cc929190610dea565b5090505033600260008054815260200190815260200160002060006101000a81548173ffffffffffffffffffffffffffffffffffffffff021916908373ffffffffffffffffffffffffffffffffffffffff1602179055507ff5c6861bfc204b47a53c3625484a3992ff2864c8e11d3c73195a19bca8e691048233604051808381526020018273ffffffffffffffffffffffffffffffffffffffff1673ffffffffffffffffffffffffffffffffffffffff1681526020019250505060405180910390a150505050565b6000600360003373ffffffffffffffffffffffffffffffffffffffff1673ffffffffffffffffffffffffffffffffffffffff16815260200190815260200160002054116107e057600080fd5b3373ffffffffffffffffffffffffffffffffffffffff166108fc600360003373ffffffffffffffffffffffffffffffffffffffff1673ffffffffffffffffffffffffffffffffffffffff168152602001908152602001600020549081150290604051600060405180830381858888f19350505050158015610865573d6000803e3d6000fd5b50565b7f5877d639a3a3aeaa9ee7f623b099e8ae5e1c7a5df4ecbca6564a4814b511a095338383604051808473ffffffffffffffffffffffffffffffffffffffff1673ffffffffffffffffffffffffffffffffffffffff168152602001838152602001828152602001935050505060405180910390a15050565b60026020528060005260406000206000915054906101000a900473ffffffffffffffffffffffffffffffffffffffff1681565b61091a610db8565b600160008481526020019081526020016000206040518060a0016040529081600082015481526020016001820154815260200160028201548152602001600382018054806020026020016040519081016040528092919081815260200182805480156109a557602002820191906000526020600020905b815481526020019060010190808311610991575b50505050508152602001600482018054806020026020016040519081016040528092919081815260200182805480156109fd57602002820191906000526020600020905b8154815260200190600101908083116109e9575b5050505050815250509050600081606001518381518110610a1a57fe5b602002602001015111610a95576040517f08c379a00000000000000000000000000000000000000000000000000000000081526004018080602001828103825260198152602001807f73657373696f6e206c656e677468206d7573742065786973740000000000000081525060200191505060405180910390fd5b80606001518281518110610aa557fe5b60200260200101518160400151420311610b27576040517f08c379a000000000000000000000000000000000000000000000000000000000815260040180806020018281038252601a8152602001807f726f626f742069732063757272656e746c79202061637469766500000000000081525060200191505060405180910390fd5b80608001518281518110610b3757fe5b6020026020010151341015610bb4576040517f08c379a00000000000000000000000000000000000000000000000000000000081526004018080602001828103825260158152602001807f6d757374207061792076616c696420616d6f756e74000000000000000000000081525060200191505060405180910390fd5b428160400181815250508181602001818152505080600160008581526020019081526020016000206000820151816000015560208201518160010155604082015181600201556060820151816003019080519060200190610c16929190610dea565b506080820151816004019080519060200190610c33929190610dea565b509050507f9724908285d37e8b74a2239b062dc95ad247b27416f980c5c796cc4333f567c5816000015182606001518481518110610c6d57fe5b602002602001015133604051808481526020018381526020018273ffffffffffffffffffffffffffffffffffffffff1673ffffffffffffffffffffffffffffffffffffffff168152602001935050505060405180910390a134600360006002600087815260200190815260200160002060009054906101000a900473ffffffffffffffffffffffffffffffffffffffff1673ffffffffffffffffffffffffffffffffffffffff1673ffffffffffffffffffffffffffffffffffffffff16815260200190815260200160002060008282540192505081905550505050565b606060016000838152602001908152602001600020600401805480602002602001604051908101604052809291908181526020018280548015610dac57602002820191906000526020600020905b815481526020019060010190808311610d98575b50505050509050919050565b6040518060a0016040528060008019168152602001600081526020016000815260200160608152602001606081525090565b828054828255906000526020600020908101928215610e26579160200282015b82811115610e25578251825591602001919060010190610e0a565b5b509050610e339190610e37565b5090565b610e5991905b80821115610e55576000816000905550600101610e3d565b5090565b9056fea265627a7a72315820dd78198f7e14d613cb982433e20dbfc9966707549f769bd5dfc56a5bc9a7ac5164736f6c63430005100032",
  "source": "pragma solidity ^0.5.16;\n\n\n\ncontract RobotRequest{\n\n\nstruct RobotInfo{\nbytes32 id;\nuint active;\nuint  startTime;\nuint[] sessionOptions;\nuint[] sessionPrices;\n\n}\nuint public totalRobots;\nmapping (uint=>RobotInfo) public Robots;\nmapping(uint=>address) public RobotOwners;\nmapping(address=>uint) public OwnerBalances;\n\nevent RobotActivate(bytes32 robotID,uint length,address user);\nevent DataRequested(address user,uint robotID,uint DataType);\nevent RobotCreated(bytes32 robotID,address creator);\n\nfunction RegisterRobot(uint[] memory _prices,uint[] memory _times,bytes32 _id) public {\n    require(_prices.length==_times.length,\"\");\n     totalRobots+=1;\n     RobotInfo memory R= RobotInfo(_id,0,0,_times,_prices);\n     Robots[totalRobots]=R;\n     RobotOwners[totalRobots]=msg.sender;\n     emit RobotCreated(_id,msg.sender);\n}\n\nfunction activateRobot(uint _robot,uint _type) public payable{\n    RobotInfo memory r=Robots[_robot];\n    require(r.sessionOptions[_type]>0,\"session length must exist\");\n    require(now-r.startTime>r.sessionOptions[_type],\"robot is currently  active\");\n    require(msg.value>=r.sessionPrices[_type],\"must pay valid amount\");\n    r.startTime=now;\n    r.active=_type;\n    Robots[_robot]=r;\n    emit RobotActivate(r.id,r.sessionOptions[_type],msg.sender);\n    OwnerBalances[RobotOwners[_robot]]+=msg.value;\n}\nfunction getRobotPrices(uint r) public view returns(uint[] memory) {\n    return Robots[r].sessionPrices;\n}\nfunction getRobotTimes(uint r) public view returns(uint[] memory) {\n    return Robots[r].sessionOptions;\n}\nfunction getRobotData(uint _id, uint _type) public {\n    emit DataRequested(msg.sender,_id ,_type);\n}\n\nfunction withdrawEarning() public {\n    require(OwnerBalances[msg.sender]>0);\n    msg.sender.transfer(OwnerBalances[msg.sender]);\n}\n\n\n\n\n\n}",
  "sourcePath": "/home/john/Documents/Code/Hackathons/ETHDenver/ETHDenver2020Contracts/contracts/RobotRequest.sol",
  "compiler": {
    "name": "solc",
    "version": "0.5.16+commit.9c3226ce.Emscripten.clang"
  },
  "schemaVersion": "3.0.5",
  "updatedAt": "2020-02-16T13:30:55.660Z",
  "devdoc": {
    "methods": {}
  },
  "userdoc": {
    "methods": {}
  }
}