{
  "contractName": "RobotControl",
  "abi": [
    {
      "anonymous": false,
      "inputs": [
        {
          "indexed": false,
          "internalType": "address",
          "name": "user",
          "type": "address"
        },
        {
          "indexed": false,
          "internalType": "uint256",
          "name": "robotID",
          "type": "uint256"
        },
        {
          "indexed": false,
          "internalType": "uint256",
          "name": "DataType",
          "type": "uint256"
        }
      ],
      "name": "DataRequested",
      "type": "event"
    },
    {
      "anonymous": false,
      "inputs": [
        {
          "indexed": false,
          "internalType": "bytes32",
          "name": "robotID",
          "type": "bytes32"
        },
        {
          "indexed": false,
          "internalType": "uint256",
          "name": "length",
          "type": "uint256"
        },
        {
          "indexed": false,
          "internalType": "address",
          "name": "user",
          "type": "address"
        }
      ],
      "name": "RobotActivate",
      "type": "event"
    },
    {
      "anonymous": false,
      "inputs": [
        {
          "indexed": false,
          "internalType": "bytes32",
          "name": "robotID",
          "type": "bytes32"
        },
        {
          "indexed": false,
          "internalType": "address",
          "name": "creator",
          "type": "address"
        }
      ],
      "name": "RobotCreated",
      "type": "event"
    },
    {
      "constant": true,
      "inputs": [
        {
          "internalType": "address",
          "name": "",
          "type": "address"
        }
      ],
      "name": "OwnerBalances",
      "outputs": [
        {
          "internalType": "uint256",
          "name": "",
          "type": "uint256"
        }
      ],
      "payable": false,
      "stateMutability": "view",
      "type": "function"
    },
    {
      "constant": true,
      "inputs": [
        {
          "internalType": "uint256",
          "name": "",
          "type": "uint256"
        }
      ],
      "name": "RobotOwners",
      "outputs": [
        {
          "internalType": "address",
          "name": "",
          "type": "address"
        }
      ],
      "payable": false,
      "stateMutability": "view",
      "type": "function"
    },
    {
      "constant": true,
      "inputs": [
        {
          "internalType": "uint256",
          "name": "",
          "type": "uint256"
        }
      ],
      "name": "Robots",
      "outputs": [
        {
          "internalType": "bytes32",
          "name": "id",
          "type": "bytes32"
        },
        {
          "internalType": "uint256",
          "name": "active",
          "type": "uint256"
        },
        {
          "internalType": "uint256",
          "name": "startTime",
          "type": "uint256"
        }
      ],
      "payable": false,
      "stateMutability": "view",
      "type": "function"
    },
    {
      "constant": false,
      "inputs": [
        {
          "internalType": "uint256[]",
          "name": "_prices",
          "type": "uint256[]"
        },
        {
          "internalType": "uint256[]",
          "name": "_times",
          "type": "uint256[]"
        },
        {
          "internalType": "bytes32",
          "name": "_id",
          "type": "bytes32"
        }
      ],
      "name": "RegisterRobot",
      "outputs": [],
      "payable": false,
      "stateMutability": "nonpayable",
      "type": "function"
    },
    {
      "constant": false,
      "inputs": [
        {
          "internalType": "uint256",
          "name": "_robot",
          "type": "uint256"
        },
        {
          "internalType": "uint256",
          "name": "_type",
          "type": "uint256"
        }
      ],
      "name": "activateRobot",
      "outputs": [],
      "payable": true,
      "stateMutability": "payable",
      "type": "function"
    },
    {
      "constant": false,
      "inputs": [
        {
          "internalType": "uint256",
          "name": "_id",
          "type": "uint256"
        },
        {
          "internalType": "uint256",
          "name": "_type",
          "type": "uint256"
        }
      ],
      "name": "getRobotData",
      "outputs": [],
      "payable": false,
      "stateMutability": "nonpayable",
      "type": "function"
    },
    {
      "constant": false,
      "inputs": [],
      "name": "withdrawEarning",
      "outputs": [],
      "payable": false,
      "stateMutability": "nonpayable",
      "type": "function"
    }
  ],
  "bytecode": "0x608060405234801561001057600080fd5b50610bd4806100206000396000f3fe6080604052600436106100705760003560e01c8063899161a01161004e578063899161a01461029a57806395ae1af5146102b1578063b74154de146102f6578063cbb7c6251461037157610070565b80632757460a1461007557806368aa2b79146100da5780638602c1e114610137575b600080fd5b34801561008157600080fd5b506100c46004803603602081101561009857600080fd5b81019080803573ffffffffffffffffffffffffffffffffffffffff1690602001909291905050506103a9565b6040518082815260200191505060405180910390f35b3480156100e657600080fd5b50610113600480360360208110156100fd57600080fd5b81019080803590602001909291905050506103c1565b60405180848152602001838152602001828152602001935050505060405180910390f35b34801561014357600080fd5b506102986004803603606081101561015a57600080fd5b810190808035906020019064010000000081111561017757600080fd5b82018360208201111561018957600080fd5b803590602001918460208302840111640100000000831117156101ab57600080fd5b919080806020026020016040519081016040528093929190818152602001838360200280828437600081840152601f19601f8201169050808301925050505050505091929192908035906020019064010000000081111561020b57600080fd5b82018360208201111561021d57600080fd5b8035906020019184602083028401116401000000008311171561023f57600080fd5b919080806020026020016040519081016040528093929190818152602001838360200280828437600081840152601f19601f820116905080830192505050505050509192919290803590602001909291905050506103eb565b005b3480156102a657600080fd5b506102af6105b4565b005b3480156102bd57600080fd5b506102f4600480360360408110156102d457600080fd5b810190808035906020019092919080359060200190929190505050610688565b005b34801561030257600080fd5b5061032f6004803603602081101561031957600080fd5b81019080803590602001909291905050506106ff565b604051808273ffffffffffffffffffffffffffffffffffffffff1673ffffffffffffffffffffffffffffffffffffffff16815260200191505060405180910390f35b6103a76004803603604081101561038757600080fd5b810190808035906020019092919080359060200190929190505050610732565b005b60036020528060005260406000206000915090505481565b60016020528060005260406000206000915090508060000154908060010154908060020154905083565b815183511461043d576040517f08c379a0000000000000000000000000000000000000000000000000000000008152600401808060200182810382526000815260200160200191505060405180910390fd5b60016000808282540192505081905550610455610afb565b6040518060a00160405280838152602001600081526020016000815260200184815260200185815250905080600160008054815260200190815260200160002060008201518160000155602082015181600101556040820151816002015560608201518160030190805190602001906104cf929190610b2d565b5060808201518160040190805190602001906104ec929190610b2d565b5090505033600260008054815260200190815260200160002060006101000a81548173ffffffffffffffffffffffffffffffffffffffff021916908373ffffffffffffffffffffffffffffffffffffffff1602179055507ff5c6861bfc204b47a53c3625484a3992ff2864c8e11d3c73195a19bca8e691048233604051808381526020018273ffffffffffffffffffffffffffffffffffffffff1673ffffffffffffffffffffffffffffffffffffffff1681526020019250505060405180910390a150505050565b6000600360003373ffffffffffffffffffffffffffffffffffffffff1673ffffffffffffffffffffffffffffffffffffffff168152602001908152602001600020541161060057600080fd5b3373ffffffffffffffffffffffffffffffffffffffff166108fc600360003373ffffffffffffffffffffffffffffffffffffffff1673ffffffffffffffffffffffffffffffffffffffff168152602001908152602001600020549081150290604051600060405180830381858888f19350505050158015610685573d6000803e3d6000fd5b50565b7f5877d639a3a3aeaa9ee7f623b099e8ae5e1c7a5df4ecbca6564a4814b511a095338383604051808473ffffffffffffffffffffffffffffffffffffffff1673ffffffffffffffffffffffffffffffffffffffff168152602001838152602001828152602001935050505060405180910390a15050565b60026020528060005260406000206000915054906101000a900473ffffffffffffffffffffffffffffffffffffffff1681565b61073a610afb565b600160008481526020019081526020016000206040518060a0016040529081600082015481526020016001820154815260200160028201548152602001600382018054806020026020016040519081016040528092919081815260200182805480156107c557602002820191906000526020600020905b8154815260200190600101908083116107b1575b505050505081526020016004820180548060200260200160405190810160405280929190818152602001828054801561081d57602002820191906000526020600020905b815481526020019060010190808311610809575b505050505081525050905060008160600151838151811061083a57fe5b6020026020010151116108b5576040517f08c379a00000000000000000000000000000000000000000000000000000000081526004018080602001828103825260198152602001807f73657373696f6e206c656e677468206d7573742065786973740000000000000081525060200191505060405180910390fd5b806060015182815181106108c557fe5b60200260200101518160400151420311610947576040517f08c379a000000000000000000000000000000000000000000000000000000000815260040180806020018281038252601a8152602001807f726f626f742069732063757272656e746c79202061637469766500000000000081525060200191505060405180910390fd5b8060800151828151811061095757fe5b60200260200101513410156109d4576040517f08c379a00000000000000000000000000000000000000000000000000000000081526004018080602001828103825260158152602001807f6d757374207061792076616c696420616d6f756e74000000000000000000000081525060200191505060405180910390fd5b42816040018181525050818160200181815250507f9724908285d37e8b74a2239b062dc95ad247b27416f980c5c796cc4333f567c5816000015182606001518481518110610a1e57fe5b602002602001015133604051808481526020018381526020018273ffffffffffffffffffffffffffffffffffffffff1673ffffffffffffffffffffffffffffffffffffffff168152602001935050505060405180910390a134600360006002600087815260200190815260200160002060009054906101000a900473ffffffffffffffffffffffffffffffffffffffff1673ffffffffffffffffffffffffffffffffffffffff1673ffffffffffffffffffffffffffffffffffffffff16815260200190815260200160002060008282540192505081905550505050565b6040518060a0016040528060008019168152602001600081526020016000815260200160608152602001606081525090565b828054828255906000526020600020908101928215610b69579160200282015b82811115610b68578251825591602001919060010190610b4d565b5b509050610b769190610b7a565b5090565b610b9c91905b80821115610b98576000816000905550600101610b80565b5090565b9056fea265627a7a723158207fdda501184fdd20c44badec2b534c10115f4f8692fd1218e3f0bb42f9d170c964736f6c63430005100032",
  "source": "pragma solidity ^0.5.16;\n\n\n\ncontract RobotControl{\n\n\nstruct RobotInfo{\nbytes32 id;\nuint active;\nuint  startTime;\nuint[] sessionOptions;\nuint[] sessionPrices;\n\n}\nuint totalRobots;\nmapping (uint=>RobotInfo) public Robots;\nmapping(uint=>address) public RobotOwners;\nmapping(address=>uint) public OwnerBalances;\n\nevent RobotActivate(bytes32 robotID,uint length,address user);\nevent DataRequested(address user,uint robotID,uint DataType);\nevent RobotCreated(bytes32 robotID,address creator);\n\nfunction RegisterRobot(uint[] memory _prices,uint[] memory _times,bytes32 _id) public {\n    require(_prices.length==_times.length,\"\");\n     totalRobots+=1;\n     RobotInfo memory R= RobotInfo(_id,0,0,_times,_prices);\n     Robots[totalRobots]=R;\n     RobotOwners[totalRobots]=msg.sender;\n     emit RobotCreated(_id,msg.sender);\n}\n\nfunction activateRobot(uint _robot,uint _type) public payable{\n    RobotInfo memory r=Robots[_robot];\n    require(r.sessionOptions[_type]>0,\"session length must exist\");\n    require(now-r.startTime>r.sessionOptions[_type],\"robot is currently  active\");\n    require(msg.value>=r.sessionPrices[_type],\"must pay valid amount\");\n    r.startTime=now;\n    r.active=_type;\n    emit RobotActivate(r.id,r.sessionOptions[_type],msg.sender);\n    OwnerBalances[RobotOwners[_robot]]+=msg.value;\n}\n\nfunction getRobotData(uint _id, uint _type) public {\n    emit DataRequested(msg.sender,_id ,_type);\n}\n\nfunction withdrawEarning() public {\n    require(OwnerBalances[msg.sender]>0);\n    msg.sender.transfer(OwnerBalances[msg.sender]);\n}\n\n\n\n\n\n}",
  "sourcePath": "/home/john/Documents/Code/Hackathons/ETHDenver/ERC1155/contracts/RobotRequest.sol",
  "compiler": {
    "name": "solc",
    "version": "0.5.16+commit.9c3226ce.Emscripten.clang"
  },
  "schemaVersion": "3.0.5",
  "updatedAt": "2020-02-15T08:43:32.139Z",
  "devdoc": {
    "methods": {}
  },
  "userdoc": {
    "methods": {}
  }
}